:020000040800F2
:100000000000032021920008934100089541000858
:1000100097410008994100089B410008000000003A
:10002000000000000000000000000000418A0008FD
:100030009D41000800000000D18A000809840008E2
:100040007192000871920008719200087192000884
:100050007192000871920008719200087192000874
:100060007192000871920008719200087192000864
:100070007192000871920008719200087192000854
:100080007192000871920008719200087192000844
:100090007192000871920008719200087192000834
:1000A0007192000871920008719200087192000824
:1000B0007192000871920008719200087192000814
:1000C0007192000871920008719200087192000804
:1000D00071920008719200087192000871920008F4
:1000E00071920008719200087192000871920008E4
:1000F00071920008719200087192000871920008D4
:1001000071920008719200087192000871920008C3
:100110007192000871920008A141000871920008D4
:1001200071920008719200087192000871920008A3
:100130007192000871920008719200087192000893
:100140007192000871920008719200087192000883
:100150007192000871920008719200087192000873
:100160007192000871920008719200087192000863
:10017000719200087192000871920008000000005E
:100180007192000871920008719200087192000843
:100190007192000871920008719200087192000833
:0C01A000AD41000871920008B941000850
:1001B0007BB972B90029BEBF00204FF0004106E0B4
:1001C00008BF00281CBF6FF000414FF0FF3000F067
:1001D00057B8ADF1080C6DE904CE002909DB002BFE
:1001E0001ADB23F0B5FCDDF804E0DDE9022304B0FE
:1001F0007047404261EB4101002B1BDB23F0A8FC60
:10020000DDF804E0DDE9022304B0404261EB410186
:10021000524263EB43037047524263EB430323F0C4
:1002200097FCDDF804E0DDE9022304B0404261EB15
:1002300041017047524263EB430323F089FCDDF830
:1002400004E0DDE9022304B0524263EB430370474C
:1002500053B94AB9002908BF00281CBF4FF0FF312D
:100260004FF0FF3000F00CB8ADF1080C6DE904CE92
:1002700023F06EFCDDF804E0DDE9022304B07047F2
:10028000704700BF000000000000000000000000F8
:1002900001F0FF01102A2BDB10F0070F08D010F837
:1002A000013B013A8B422DD010F0070F42B3F6D13B
:1002B000F0B441EA012141EA014122F007047FF054
:1002C00000070023F0E80256083C85EA010586EAAB
:1002D000010685FA47F5A3FA87F586FA47F6A5FAE7
:1002E00087F68EB9EED1F0BC01F0FF0102F00702F3
:1002F00032B110F8013B013A83EA010313B1F8D19E
:100300000020704701387047002D06BF354603387E
:10031000073815F0010F07D1013015F4807F02BFB7
:10032000013015F4C03F0130F0BC0138704700BF08
:100330000348044B834202D0034B03B11847704774
:100340005C0100205C010020000000000548064B15
:100350001B1AD90F01EBA301491002D0034B03B1C3
:10036000184770475C0100205C010020000000007D
:1003700010B5064C237843B9FFF7DAFF044B13B1ED
:100380000448AFF300800123237010BD60030020F8
:1003900000000000804D020808B5054B1BB105495F
:1003A0000548AFF30080BDE80840FFF7CFBF00BFAE
:1003B0000000000064030020804D020870470438EC
:1003C0007047704710B51021044622F0BAFB204652
:1003D00010BDA0F10400F5E700228260024A02602D
:1003E00018324260C1607047E04D020870477047A4
:1003F0007047704710B5034B0360044600F06CF97A
:10040000204610BD084E020810B50446FFF7F2FF63
:1004100020464FF4BF6122F094FB204610BD00003F
:1004200010B5044600F080F9014B2360204610BD52
:10043000084E020800F044B981807047C1807047BF
:10044000018170474181704770477047704770471E
:10045000704710B4C4880368121B84885B6D091B45
:1004600012B25DF8044B09B21847806A704790F8E1
:10047000252012B103685B691847704710B5034B1C
:100480000360044600F09EF9204610BD3C4E020871
:1004900010B50446FFF7F2FF204640F28C5122F0DF
:1004A00050FB204610BD000010B5044600F0ECFAE9
:1004B000014B2360204610BD3C4E020800F083B97A
:1004C0007047000010B5034B0360044600F0C5FC04
:1004D000204610BDD04E020810B50446FFF7F2FFCB
:1004E00020464FF4667122F02CFB204610BD000020
:1004F00010B5044600F04EFD014B2360204610BDB0
:10050000D04E020800F0AABC70470438704770470C
:1005100010B51021044622F014FB204610BDA0F1B6
:100520000400F5E700228260024A0260183242604D
:10053000C1607047044F0208704704387047704725
:1005400010B51021044622F0FCFA204610BDA0F19F
:100550000400F5E700228260024A0260183242601D
:10056000C16070472C4F02087047000010B5034B64
:100570000360044600F0E7FE204610BD544F020819
:1005800010B50446FFF7F2FF20464FF4DE7122F06B
:10059000D8FA204610BD000010B5044600F01EFF3A
:1005A000014B2360204610BD544F020800F0CCBE22
:1005B00000220260704770477047000010B5034B7F
:1005C0000360044601F027F8204610BD884F02085A
:1005D00010B50446FFF7F2FF20464FF4C07122F039
:1005E000B0FA204610BD000010B5044601F074F8C2
:1005F000014B2360204610BD884F020801F00CB863
:10060000704704387047704710B51021044622F037
:1006100098FA204610BDA0F10400F5E700228260A0
:10062000024A026018324260C1607047BC4F020843
:10063000704700F598730868496803C370477047AE
:1006400001F028BB10B54FF4AE71044622F079FAE0
:10065000204610BD10B50446D0F85801FFF7ABFF97
:100660002046BDE8104010F069B910B50446D0F836
:10067000400158B10368DB68984738B1D4F84001AD
:1006800003689B6898470023C4F8403110BD000000
:1006900010B5044601F0CAFA014B2360204610BD94
:1006A000E44F0208002070474FF6FF7383814FF03C
:1006B000FF3303621368C36110607047704770476F
:1006C0006C30FFF7FBBE90F825201AB190F824207B
:1006D00002B118607047000010B5054B0360054B70
:1006E000044640F86C3F00F06DF8204610BD00BF96
:1006F000385002083C4E020810B50446FFF7ECFFE4
:1007000020464FF4BF6122F01CFA204610BD70B5A0
:10071000036804461B6B1546984723682946204604
:100720005B6BBDE8704018472DE9F041044612F0BC
:1007300065F8204B2360204B0025C4E910354FF4A9
:10074000807304F16C07A4F86430FF2384F86630EA
:1007500004F14006C4E91255C4E91455C4E916551C
:10076000E5632566A5663846FFF79EFE2A462946BC
:100770003046FFF7CCFF3046F021FFF761FE3046F0
:100780004FF4A071FFF75EFE04F104084FF07F43C1
:10079000A3663146404608F0A4FD2A46294638465D
:1007A000FFF7B5FF4046394608F09BFD2046BDE8FF
:1007B000F08100BF38500208186E02087047704779
:1007C000704770477047704790F82C304BB100F17C
:1007D0006C021268C2653BB100F174031B680366CA
:1007E000704700F16802F4E700F17003F6E708B51E
:1007F00090F82C303BB100F1C4031B68C0F8A8305E
:10080000FFF7E2FF08BD00F1C003F6E730B4C268AD
:1008100044685510034604EB6200D20748BF625992
:100820009B6830BC48BFD35818470346406830B176
:100830009A681AB9D86800F0010070470120704723
:1008400090F82D3080F8AE3080F85A30704790F82C
:100850002D3080F85A30704710B50821044622F038
:1008600070F9204610BD10B57821044622F069F9D0
:10087000204610BD10B5C821044622F062F920467A
:1008800010BD10B51021044622F05BF9204610BDC2
:1008900010B540F28C51044622F053F9204610BDA9
:1008A00010B50446006B50B10368DB68984730B15F
:1008B000206B036821469B68BDE81040184710BDB7
:1008C00070B50B7990F82C6004460D460BB916B143
:1008D00070BD002EFCD0B3FA83F35B0984F82C3092
:1008E00023682046D3F88C309847236820465B69FC
:1008F0009847002EECD02B79012BE9D123682046B4
:10090000D3F88830BDE87040184700F5B6708842CB
:1009100008B505D10FF070FFBDE8084001F0EAB955
:1009200008BD0000074A02600022C0E90122C0E9B8
:100930000322C0E90522C0E907224FF480728284B5
:10094000704700BF2C70020870B5036804469B6BAB
:1009500015469847236829462046DB6BBDE8704062
:10096000184738B504461D46FFF7D1FEBDF91020E3
:1009700029462046FFF7E8FF38BD000070B5044661
:10098000FFF7D0FF4FF47F432646A38501230025C0
:1009900084F82430124BA562256346F8343B29467F
:1009A0002622304623F02BFC3046FFF7BBFFFF2307
:1009B00084F85A300B4B63632A4629463046C4E913
:1009C0001A55C4E91C55E5652566A4F86450FFF77F
:1009D0009EFE2046314608F084FC204670BD00BFD4
:1009E0007C500208806E020838B504462546FFF7A1
:1009F000C5FF144B45F8783B26220021284623F0FA
:100A0000FEFB2846FFF78EFF0F4BA3670F4BC4F882
:100A1000A0304FF6FF73A4F8A4304FF47F020023F8
:100A2000C4E92A324FF0FF322046C4E92E23C4E93C
:100A30003033A4F8B030C4F8B430294608F051FC83
:100A4000204638BD18510208886D02086C50020813
:100A500010B40367C0E91A12019B436703685DF88D
:100A6000044BD3F88C30184738B5044600F17805AC
:100A700028460CF011FFB4F90A20B4F908102846F2
:100A8000FFF762FF38BD00002DE9F04F04468DB03E
:100A9000A2460026FFF746FFCD4BA6624AF82C3B44
:100AA00004F1A4095046FFF769FF4846FFF79CFF91
:100AB00004F5B67318460293FFF796FF04F50D731D
:100AC00018460393FFF75AFF04F52B731846049357
:100AD000FFF754FF04F5497318460593FFF74EFFDF
:100AE00004F5677318460693FFF748FF04F21443B2
:100AF00018460793FFF742FF04F28C431846089309
:100B0000FFF73CFF04F2045318460993FFF736FF42
:100B1000B04BC4F87C35B04BDFF814B3C4F884355F
:100B20001E25AE4BAE4FA3604FF00208C4F88045BF
:100B3000C4F888652B463246314604F160000095C2
:100B4000FFF70FFFA4F890805B465046A54AA649E0
:100B50000097FFF77DFF2B464FF4827231465046D7
:100B60000095FFF7FEFE5146204608F0BAFB3246DC
:100B7000314604F1D80000957823FFF7F2FE4FF0DC
:100B80000303A4F80831994A994B009748464FF05F
:100B9000FF31FFF75DFFDFF89CA2964B0A930AA98D
:100BA0004846ADF82C80FFF75FFF32463146782388
:100BB00004F58E700095FFF7D4FE4846C4E959AAA3
:100BC000FFF715FE78234FF49172314648460095A1
:100BD000FFF7C7FE4946204608F083FB3246314600
:100BE00004F5D07000957823FFF7BBFE4FF00302A9
:100BF000A4F8D02102987D4A7F4B80490097FFF7E7
:100C000027FF7C4B02980A930AA90123ADF82C30E8
:100C1000FFF72AFF32463146782304F5F27000953B
:100C2000FFF79FFE0298C4E98BAAFFF7E0FD04F2EC
:100C30007C53C4F89C3178231946029800954FF4F0
:100C40009172FFF78EFE0299204608F04AFB2B4670
:100C50003246314604F51A700095FFF782FE03987C
:100C6000A4F898825B46664A66490097FFF7F0FE53
:100C70002B46039800954FF482723C21FFF771FEDA
:100C80000399204608F02DFB2B463246314604F5E9
:100C900038700095FFF765FE0498A4F810835B4652
:100CA000594A5A490097FFF7D3FE2B4604980095FE
:100CB0004FF482725A21FFF754FE0499204608F03F
:100CC00010FB2B463246314604F556700095FFF76F
:100CD00048FE0598A4F888835B464D4A4D49009725
:100CE000FFF7B6FE2B46059800954FF48272B421AB
:100CF000FFF737FE0599204608F0F3FA2B463246F7
:100D0000314604F574700095FFF72BFE0698A4F8A1
:100D100000845B46404900974FF07F42FFF798FE02
:100D20002B46069800954FF48272D221FFF719FEE8
:100D30000699204608F0D5FA2B463246314604F58E
:100D400089600095FFF70DFE0798A4F878845B464C
:100D5000264A32490097FFF77BFE2B4607980095FD
:100D60004FF482727821FFF7FCFD0799204608F0C6
:100D7000B8FA2B463246314604F598600095FFF7E5
:100D8000F0FD0898A4F8F0845B46254A25490097B1
:100D9000FFF75EFE2B46089800954FF4827296216D
:100DA000FFF7DFFD0899204608F09BFA2B463246F4
:100DB000314604F5A7600095FFF7D3FD0998A4F824
:100DC00068855B46184A19490097FFF741FE33E0F2
:100DD000CC510208B45102080B090008F000400190
:100DE000996633FF0F0FBFFF1414FFFFCC9900FF6C
:100DF000FF674FFF6C5002088C4600FFE7F26BFF65
:100E00000078ABFF05B4FFFF4BCC00FF4DCC31FFAA
:100E1000FF0048FFEB4675FF1F190DFFFCE532FF91
:100E2000FF5900FFFF8B4DFF0055FFFF1C6BFFFFBD
:100E3000663300FF0A0A0AFF099800952B464FF413
:100E400082722946FFF78DFD2046099908F049FA7C
:100E500020460DB0BDE8F08F70477047704730B442
:100E6000C26844685510034604EB6200D20748BFCD
:100E700062599B6830BC48BFD35818470346406846
:100E800030B19A681AB9D86800F0010070470120A3
:100E9000704710B51021044621F053FE204610BDC6
:100EA00010B54FF46671044621F04BFE204610BD8C
:100EB00038B500F52F73994204460D4603D10FF063
:100EC0009BFC00F027FF04F1E0039D4203D10FF0EB
:100ED00093FC00F0EFFE04F51D74A54205D10FF060
:100EE0008BFCBDE8384000F025BF38BD0022C0E9CA
:100EF0000122C0E90322C0E90522C0E907224FF41C
:100F000080728284014A0260704700BF2462020836
:100F1000F8B5194B018F1B888B4206462AD9174B0F
:100F20001B682BB9164B174A17486C2122F06EFF2D
:100F300013F81120154B1B6853F82250144B1868F6
:100F400001F00AFD2B6807469B6B284698472B68E3
:100F500004469B6C3946284698472B6814FB00F4DE
:100F60005B6A394628469847A4B223181BB2A6F8F4
:100F70004630F8BD0023FAE7DC2B0120E82B0120E6
:100F8000585202089A520208D5520208E02B01205A
:100F9000E42B01202DE9F04F044693B0A246002532
:100FA00011F02CFCD84BE5634AF8403B262632462C
:100FB0002946504623F023F95046FFF797FF04F1E6
:100FC0006C09D24B23644FF0FF374FF6FF7B32465C
:100FD000294684F86670A5664846ADF840B023F00F
:100FE0000EF94846FFF782FFC94BE366BDF8403073
:100FF000A4F8923004F1980884F8947010A9484637
:101000000CF0E5FD29463246404623F0F8F840460C
:10101000FFF76CFFBF4BC4F89830BF4BC4F8C0302B
:101020004FF0FF364FF47F0304F1E00204F59477AC
:10103000C4F8CC30C4E93665A4F8C4B01046C4F88E
:10104000C850A4F8D050C4F8D45002920CF04CFF11
:10105000384608F0F3FE04F5F272104603920CF0E5
:1010600043FF04F50B72104604920CF03DFF04F5AB
:101070001D72104605920CF037FF04F52F721046D2
:1010800006920CF031FF04F5417210A91046079248
:10109000ADF840600BF0ACFF04F54C7210A910469F
:1010A0000892ADF840B00BF0A3FF04F5577210A9F9
:1010B00010460992ADF840B00BF09AFF974BC4E987
:1010C000E234974BC4E9E4354FF4A0732A46009309
:1010D0002946F02350464FF07F4BFFF742FCC4F8FF
:1010E00068B05146201D08F0FCF82A4629464846BB
:1010F000FFF70DFB10A94846ADF840500CF067FD16
:101100004946201D08F0EDF80DF128090E22404651
:101110004C21FFF7FCFAC4F8C86041464846A4F8E1
:10112000CC500CF0F3F899E8070004F1D40383E8FD
:101130000700794B109310A905234046ADF84430C1
:101140000CF0AAFB4146201D08F0CBF8029840F2B3
:1011500003123121FFF7DBFA01234FF0030810AA35
:101160000FA90298ADF83C300223ADF8403004F5E9
:10117000627A0CF0EBFB0298A4F81881FFF7C8FE26
:10118000C4E947660299C4F808A1201D08F0A9F82F
:10119000CE232D2200932946F0233846FFF7E1FBAA
:1011A0005946384609F086F93846FF2109F087F993
:1011B00003984C222B21FFF7AAFA4FF0040910AA3A
:1011C0000FA90398ADF83C80ADF840900CF0BEFB41
:1011D0000723A4F81C320398FFF79AFEC4E9886637
:1011E0000399384609F041F9049895222B21FFF71D
:1011F0008EFA4FF0060B10AA0FA90498ADF83C80A8
:10120000ADF840900CF0A2FB0498A4F864B2FFF78C
:101210007FFEC4E99A660499384609F026F90598D4
:10122000E1222B21FFF773FA10AA0FA90598ADF858
:101230003C80ADF840900CF089FB0598A4F8AC52C6
:10124000FFF766FEC4E9AC660599C4F89CA238466F
:1012500009F00BF906985A462B21FFF758FA10AA05
:101260000FA90698ADF83C80ADF840900CF06EFBED
:101270000823A4F8F4320698FFF74AFEC4E9BE66D4
:101280000699C4F8E4A2384609F0EFF83226079828
:10129000092310A9ADF840300CF099FC33464C22DC
:1012A000079800961221FFF75CFB079829460BF080
:1012B00035FE0799384609F0D8F808980D2310A98B
:1012C000ADF840300CF083FC334695220898009628
:1012D0001221FFF746FB089829460BF01FFE0899DC
:1012E000384609F0C2F809980B2310A9ADF8403030
:1012F0000CF06DFC33465A46099800961221FFF710
:1013000030FB09980EE000BFA4620208186E0208C4
:10131000E86E0208886D02086C5002088C620208B0
:10132000B10E000829460BF0F9FD0999384609F07D
:101330009CF804EB0900394607F0D3FF204613B0B0
:10134000BDE8F08F70477047704730B4C26844689A
:101350005510034604EB6200D20748BF62599B68F0
:1013600030BC48BFD35818470346406830B19A682C
:101370001AB9D86800F0010070470120704710B515
:101380001021044621F0DDFB204610BD10B54FF4BE
:10139000DE71044621F0D5FB204610BDF0308842B6
:1013A00008B505D10FF028FABDE8084000F092BC5E
:1013B00008BD000010B526220446002122F01FFFC0
:1013C0002046FFF793FD044B2360FF2384F826306B
:1013D0000023A362204610BD186E02082DE9F04FCD
:1013E00004468DB0A346002511F008FA804BE56352
:1013F0004BF8403B04F16C084FF026095846FFF7C4
:10140000D9FF4FF6FF764A4629464046ADF8286098
:1014100022F0F5FE4046FFF769FD764BE366BDF826
:101420002830A4F892300AA984F8946040460CF061
:10143000CEFB04F1980318460293FFF7BBFF04F1BB
:10144000C40304F1F00A184604F59C770393FFF7F0
:10145000B1FF50460CF048FD4A462946384622F076
:10146000CEFE3846FFF742FD634BC4F83831634B7C
:10147000C4F8603104F5C0794FF0FF324FF47F03B8
:10148000C4E95E25A4F86461C4F86C310AA9C4F803
:101490006851A4F87051C4F874514846ADF828203A
:1014A0000BF0A6FD564BC4E96B34564BC4E96D35C1
:1014B0004FF4A0732A46009329465846F023261D70
:1014C000FFF74FFA4FF07F43A3665946304607F0C7
:1014D00008FF2A4629464046FFF719F90AA940465F
:1014E000ADF828500CF073FB4146304607F0F9FE8A
:1014F0000F230298009337222946F023FFF731FA91
:10150000414B0299C4F8C030304607F0EAFE3E2352
:101510002A46039800932946F023FFF722FA3B4B13
:10152000C4F8EC300399304607F0DBFE5046CD227C
:101530004121FFF7ECF805230AAA09A9ADF82430E8
:1015400050460623ADF828300CF000FA0A23A4F820
:1015500028315046FFF7DCFC2D4B4FF0FF32C4E939
:101560004B3204F5D673C4F818315146304607F0B3
:10157000B8FE384676222721FFF7C9F80DF110088A
:101580004FF0FF32C4F8682139464046A4F86C5148
:101590000BF0BCFE98E8070004F5BA7383E8070077
:1015A000164B0A930AA909233846ADF82C300CF0E3
:1015B00073F93946304607F094FE0C230AA94846D1
:1015C000ADF828300CF003FB2F230093502319466D
:1015D00008224846FFF7C5F9294648460BF09EFC0D
:1015E0003046494607F07DFE20460DB0BDE8F08F3D
:1015F000F0620208E86E0208886D02086C5002086A
:10160000D86202089D13000812E7FFFFFFEFADFF4D
:101610000D1414FF70477047704730B4C2684468B7
:101620005510034604EB6200D20748BF62599B681D
:1016300030BC48BFD35818470346406830B19A6859
:101640001AB9D86800F0010070470120704710B542
:101650001021044621F075FA204610BD10B54FF454
:10166000C071044621F06DFA204610BD08B5034A4A
:10167000034B0448942122F0C9FB00BF52530208D7
:10168000165302088553020838B500F1F003994259
:1016900004460D4611D10E4AB0F81E3112680AB93F
:1016A000FFF7E4FFB0F824210A489A420CBF012258
:1016B00000224FF4005104F0C9FA04F59474A542D5
:1016C00005D10FF099F8BDE8384000F013BB38BDE4
:1016D000102C0120001802402DE9F04F044685B07F
:1016E000A146002511F08AF8644BE56349F8403BB8
:1016F00004F16C0B484604F19808FFF75BFE58466E
:10170000FFF758FE4FF6FF7603A904F1C40A4046DE
:10171000ADF80C600BF06CFC5046FFF74BFE40F24E
:10172000011304F59477A4F81431554BC4F81851FB
:10173000C4E93D55C4E93F55C4E94155C4E94355A1
:1017400084F81C51A4F81E61A4F8206184F8226179
:10175000C4F8F030A4F8246138460CF0C5FB494BBE
:10176000C4E95C34484BC4E95E354FF4A0732A46A3
:10177000009329464846F023FFF7F3F8261D4FF063
:101780007F43A3664946304607F0ABFDB6238A2265
:10179000009329465846F023FFF7E3F83B4BC4F883
:1017A00094305946304607F09CFD4FF083090A23D8
:1017B00003A94046ADF80C300CF009FA2A46F02394
:1017C000CDF8009029464046FFF7CBF82946404621
:1017D0000BF0A4FB4146304607F083FD0F234A4639
:1017E00000932946F02350464FF0FF35FFF7B9F834
:1017F00004F1F00851463046C4F8EC5007F071FD92
:101800004046B2223021FEF782FF0723ADF80830B0
:1018100008230DEB0301A4F8243103AA404604F584
:10182000B879ADF80C300CF091F841463046C4F868
:10183000189107F056FD384640F207123621FEF7A0
:1018400066FF012303AA02A9ADF808303846022337
:10185000ADF80C300CF07AF80423A4F86031384667
:10186000FFF756FB3046C4E95955C4F85091394644
:1018700007F037FD204605B0BDE8F08F3C63020855
:10188000306C02082463020889160008DCDEA2FF1F
:101890007047704770474160704770477047012339
:1018A0000372704770477047704710B4C268416850
:1018B0005410034601EB6200D20748BF0A599B68E7
:1018C0005DF8044B48BFD35818470346406830B111
:1018D0009A681AB9D86800F0010070470120704773
:1018E00010B50C21044621F02CF9204610BD10B58E
:1018F0001021044621F025F9204610BD10B54FF403
:10190000AE71044621F01DF9204610BD10B54021EE
:10191000044621F016F9204610BD10B540210446BA
:1019200021F00FF9204610BD10B50EF065FF0368D9
:10193000BDE81040DB6B1847054B1B7801462BB107
:10194000406818B103680C315B6E1847704700BFE0
:101950007E2B0120054B1B7801462BB1406818B146
:1019600003680C315B6E1847704700BF7E2B012067
:1019700070B5037A0546BBB940680368DB699847D0
:1019800004463CB96868036805F10C011B6EBDE8AC
:1019900070401847E1886B8FC91A236820465B6B3B
:1019A00009B29847A469ECE770BD70B5037A0546A3
:1019B000BBB940680368DB69984704463CB968686E
:1019C000036805F10C011B6EBDE870401847E18803
:1019D0006B8FC91A236820465B6B09B29847A469CC
:1019E000ECE770BD70B5044690F8390094F83830D3
:1019F0000130C0B2984284F8390005D9012323721E
:101A0000002384F8393070BDB4F93A20002111F078
:101A100096F8C30706D500284FF6FF73C8BF012309
:101A2000184400B2638AC01AA08760680368DB6943
:101A3000984705462DB960680368BDE870405B694A
:101A40001847E988A38F19442B6828465B6B09B2B5
:101A50009847AD69EEE770B5044690F8390094F800
:101A600038300130C0B2984284F8390005D90123DA
:101A70002372002384F8393070BDB4F93A20002174
:101A800011F05DF8C30706D500284FF6FF73C8BFF5
:101A90000123184400B2638AC01AA08760680368F3
:101AA000DB69984705462DB960680368BDE870405A
:101AB0005B691847E988A38F19442B6828465B6B3C
:101AC00009B29847AD69EEE72DE9F14FD0E9556AC3
:101AD0000746B06803681B6A9847B0F5DE7F05D2F9
:101AE000444B454AA321454822F090F970680368A9
:101AF0001B6A98470F2803D8414B3F4AA421F2E7BD
:101B0000F06803681B6A98470B2803D83D4B3A4A94
:101B1000A521E8E70EF070FEDFF8F09004300EF03B
:101B2000ABFED9F8000010B10368DB689847D9F81C
:101B3000000010B103681B689847DFF8D480D8F81C
:101B4000000010B103685B699847D7F83C0110B1F9
:101B500003685B689847D8F8000010B103681B68F9
:101B60009847D7F83C0110B103689B689847F06824
:101B7000036800215B6A98474FF0000B224BC0F8C6
:101B800004B080F808B003600446B06803685946A2
:101B90005B6A98470546FEF7FFFC70680368594684
:101BA0005B6A984729460646FEF7D4FC331DC7F802
:101BB0003C61C9F80040C8F80050CAF80030C6F8C7
:101BC00008A02B68EE632846DB68984733683046E8
:101BD0001B6898472146284610F0ABFF2368204633
:101BE0001B69984723685B69204601B0BDE8F04F48
:101BF000184700BFC3530208515402082355020876
:101C00006455020807560208DC630208D02B012045
:101C1000D42B0120044B1B6893F85C200AB1186D8B
:101C200000B99868704700BF882B0120F8B51746A7
:101C300004460E460EF0F2FE124B1C60124B23605F
:101C4000124B0025C4E95135114BC4E94F55C4E985
:101C50005355C4E955761868036801219B68984775
:101C6000284600F03DFEFFF7D5FF19F036F8FFF7E4
:101C7000D1FF19F0ADF8FFF7CDFF19F0B5F8204608
:101C8000F8BD00BFD82B01208863020870630208EA
:101C9000882B0120064BC0F84C310023C0F850318E
:101CA00000F5A273C0F84801C0F84031704700BF8A
:101CB000C91A0008064BC0F84C310023C0F8503157
:101CC00000F5A273C0F84801C0F84031704700BF6A
:101CD000F91E0008064BC0F84C310023C0F8503103
:101CE00000F5A273C0F84801C0F84031704700BF4A
:101CF00019230008064BC0F84C310023C0F85031BE
:101D000000F5A273C0F84801C0F84031704700BF29
:101D1000BD1D0008064BC0F84C310023C0F85031FF
:101D200000F5A273C0F84801C0F84031704700BF09
:101D3000E1210008064BC0F84C310023C0F85031B7
:101D400000F5A273C0F84801C0F84031704700BFE9
:101D5000A9200008F7B505460026144B4660067218
:101D600045F80C3B044628460F460BF0C3F8104BD1
:101D700084F838701B7884F83960A68723B901236A
:101D80002372204603B0F0BD0A4FB7F9003000932C
:101D9000094B3246B3F9003031462846FEF7E1FDE3
:101DA00028460BF022F83B886387EAE724640208A0
:101DB0007E2B0120842B0120862B01202DE9F0476A
:101DC000D0E9556A0746B06803681B6A9847B0F5C2
:101DD000667F05D2414B424AA321424822F016F8C1
:101DE000706803681B6A98470F2803D83E4B3C4A2B
:101DF000A421F2E7F06803681B6A98473F2803D8DC
:101E00003A4B374AA521E8E70EF0F6FCDFF8E09000
:101E100004300EF031FDD9F8000010B10368DB6822
:101E20009847D9F8000010B103681B689847DFF89D
:101E3000C480D8F8000010B103685B699847D7F8F0
:101E40003C0110B103685B689847D8F8000010B1F6
:101E500003681B689847D7F83C0110B103689B687A
:101E60009847F068036800215B6A9847142104468C
:101E7000FFF770FFB068036800215B6A984705466A
:101E8000FEF736FB7068036800215B6A98472946B5
:101E90000646FEF747FB331DC7F83C61C9F8004012
:101EA000C8F80050CAF80030C6F808A02B68EE63E6
:101EB0002846DB689847336830461B6898472146B8
:101EC000284610F036FE236820461B699847236891
:101ED00020465B69BDE8F047184700BFC3530208BE
:101EE000AA5602082355020864550208075602083C
:101EF000D02B0120D42B01202DE9F047D0E9556AE1
:101F00000746B06803681B6A9847B0F5DE7F05D2C4
:101F1000414B424AA321424821F078FF7068036890
:101F20001B6A98470F2803D83E4B3C4AA421F2E78E
:101F3000F06803681B6A98473F2803D83A4B374A32
:101F4000A521E8E70EF058FCDFF8E09004300EF031
:101F500093FCD9F8000010B10368DB689847D9F802
:101F6000000010B103681B689847DFF8C480D8F8F8
:101F7000000010B103685B699847D7F83C0110B1C5
:101F800003685B689847D8F8000010B103681B68C5
:101F90009847D7F83C0110B103689B689847F068F0
:101FA000036800215B6A984714210446FFF7D2FEBC
:101FB000B068036800215B6A98470546FEF7ECFAB3
:101FC0007068036800215B6A984729460646FEF759
:101FD000C1FA331DC7F83C61C9F80040C8F8005089
:101FE000CAF80030C6F808A02B68EE632846DB6804
:101FF0009847336830461B6898472146284610F0BA
:1020000098FD236820461B699847236820465B6932
:10201000BDE8F047184700BFC353020890570208B5
:10202000235502086455020807560208D02B0120E8
:10203000D42B012003685B6A18470000F7B50546FA
:102040000026154B4660067245F80C3B04462846B0
:102050000F460AF04FFF114B84F838701B7884F854
:102060003960A68723B901232372204603B0F0BD4F
:102070000B4FB7F9003000930A4B3246B3F90030EA
:1020800031462846FEF76DFC28460AF0AEFE3B8836
:102090005B426387E9E700BF006402087E2B0120F2
:1020A000842B0120862B01202DE9F047D0E9556AC9
:1020B0000746B06803681B6A9847B0F5BF6F05D242
:1020C000404B414AA321414821F0A0FE70680368BB
:1020D0001B6A98470F2803D83D4B3B4AA421F2E7DF
:1020E000F06803681B6A98473F2803D8394B364A83
:1020F000A521E8E70EF080FBDFF8DC9004300EF05D
:10210000BBFBD9F8000010B10368DB689847D9F829
:10211000000010B103681B689847DFF8C080D8F84A
:10212000000010B103685B699847D7F83C0110B113
:1021300003685B689847D8F8000010B103681B6813
:102140009847D7F83C0110B103689B689847F0683E
:102150000021FFF76FFF14210446FFF76FFFB068FF
:10216000036800215B6A98470546FEF759F97068D5
:10217000036800215B6A984729460646FEF72CF95A
:10218000331DC7F83C61C9F80040C8F80050CAF8D0
:102190000030C6F808A02B68EE632846DB68984735
:1021A000336830461B6898472146284610F0C1FC2A
:1021B000236820461B699847236820465B69BDE871
:1021C000F0471847C35302087658020823550208FF
:1021D0006455020807560208D02B0120D42B012099
:1021E0002DE9F047D0E9556A0746B06803681B6AD5
:1021F0009847B0F5C07F05D2404B414AA3214148E2
:1022000021F004FE706803681B6A98470F2803D802
:102210003D4B3B4AA421F2E7F06803681B6A9847EC
:102220003F2803D8394B364AA521E8E70EF0E4FAF7
:10223000DFF8DC9004300EF01FFBD9F8000010B17D
:102240000368DB689847D9F8000010B103681B6881
:102250009847DFF8C080D8F8000010B103685B69C8
:102260009847D7F83C0110B103685B689847D8F8E5
:10227000000010B103681B689847D7F83C0110B103
:1022800003689B689847F0680021FFF7D3FE14218C
:102290000446FFF7D3FEB068036800215B6A9847E5
:1022A0000546FEF7A1F97068036800215B6A98474C
:1022B00029460646FEF7B2F9331DC7F83C61C9F856
:1022C0000040C8F80050CAF80030C6F808A02B68D3
:1022D000EE632846DB689847336830461B689847AA
:1022E0002146284610F025FC236820461B699847A4
:1022F000236820465B69BDE8F0471847C3530208CE
:10230000605902082355020864550208075602085E
:10231000D02B0120D42B01202DE9F047D0E9556ABC
:102320000746B06803681B6A9847B0F5667F05D218
:10233000404B414AA321414821F068FD7068036881
:102340001B6A98470F2803D83D4B3B4AA421F2E76C
:10235000F06803681B6A98473F2803D8394B364A10
:10236000A521E8E70EF048FADFF8DC9004300EF023
:1023700083FAD9F8000010B10368DB689847D9F8F0
:10238000000010B103681B689847DFF8C080D8F8D8
:10239000000010B103685B699847D7F83C0110B1A1
:1023A00003685B689847D8F8000010B103681B68A1
:1023B0009847D7F83C0110B103689B689847F068CC
:1023C0000021FFF737FE14210446FFF737FEB068FF
:1023D000036800215B6A98470546FEF789F8706834
:1023E000036800215B6A984729460646FEF79AF87B
:1023F000331DC7F83C61C9F80040C8F80050CAF85E
:102400000030C6F808A02B68EE632846DB689847C2
:10241000336830461B6898472146284610F089FBF0
:10242000236820461B699847236820465B69BDE8FE
:10243000F0471847C35302084C5A020823550208B4
:102440006455020807560208D02B0120D42B012026
:1024500013B5002451B1036801948DF8034001AA1B
:102460009C680DF10303A04702B010BD0846FBE7CE
:10247000C0897047008A7047C0887047808870475D
:10248000807A00F07F007047807AC0097047002092
:10249000704700009FED010A704700BF0000000078
:1024A000406A7047806A7047704710B58A880B8809
:1024B0004C88C169D20A9BB251F8220043EA044316
:1024C000184410BD10B50446BAB1107B68B1537BF7
:1024D000D27A1B0203F4E0631A43236A03EB8203FC
:1024E0001A888A4202D193F9020010BD05D801383A
:1024F00080B204330028F3D1F7E70020F5E710B5E8
:102500002C21044620F01DFB204610BD30B58BB0B9
:102510000446BDF860500895BDF85C5007959DF8DD
:10252000505006959DF84C5005959DF848500495DF
:102530009DF8445003959DF8405002959DF83C50FD
:102540000195BDF8385000950FF05CFF064B2360F5
:10255000159BE361169B2362199B63621A9BA3621E
:1025600020460BB030BD00BF4864020830B5184D9E
:102570002C6814F001048FB0BFF35B8F24D1284680
:1025800020F0E1FA00B33F230993124B0893124B5A
:10259000079302220123CDE9053204930423CDE9F8
:1025A000024319230D4900931222CDE90B440C4834
:1025B0000A940194FFF7AAFF0A4A0B49084820F041
:1025C000BBFA284620F0CBFA05480FB030BD00BF5B
:1025D0007C030020088E0208D08D02088C8102083E
:1025E0008003002000000020A924000830B5174D0A
:1025F0002C6814F001048FB0BFF35B8F22D1284602
:1026000020F0A1FAF0B13F230993114B0893114B2D
:10261000114912480A940122CDE906430423CDE969
:1026200003320A230093CDE90B44CDE9014405941C
:10263000FFF76CFF0A4A0B49084820F07DFA28464C
:1026400020F08DFA05480FB030BD00BFAC0300206C
:10265000DC8D0208D88D0208008C0208B00300202F
:1026600000000020A924000810B5002404600C60BC
:1026700014601C6010BD000030B5174D2C6814F0BC
:1026800001048FB0BFF35B8F22D1284620F05BFAA4
:10269000F0B13F230993114B0893114B1149124894
:1026A0000A940122CDE906430423CDE9033228230D
:1026B0000093CDE90B44CDE901440594FFF726FFD3
:1026C0000A4A0B49084820F037FA284620F047FA12
:1026D00005480FB030BD00BFDC030020D48D0208D8
:1026E0000C8E0208288C0208E00300200000002065
:1026F000A924000830B5184D2C6814F001048FB0DF
:10270000BFF35B8F24D1284620F01DFA00B33F238E
:102710000993124B0893124B07930123CDE905430C
:1027200004930423CDE9024314230E4900931D2290
:102730001823CDE90B440C480A940194FFF7E6FEF8
:102740000A4A0B49084820F0F7F9284620F007FA12
:1027500005480FB030BD00BF0C040020E08D02081A
:10276000108E0208388C020810040020000000209F
:10277000A9240008704710B50421044620F0E1F9AF
:10278000204610BD08B5032913D8DFE801F0020682
:102790000A0E00F019F8006808BD00F015F840684E
:1027A000FAE700F011F88068F6E700F00DF8C0686D
:1027B000F2E70020F0E7000000487047BC64020820
:1027C0000E2070470B207047004870473C040020E3
:1027D00010B5FFF7CBFE064C2060FFF74DFF6060A1
:1027E000FFF704FFA060FFF785FFE06010BD00BFAA
:1027F0003C04002000207047002070470EB403B551
:1028000003AB002153F8042B01930FF087F802B0BB
:102810005DF804EB03B070470CB407B504AB53F894
:10282000042B01930FF07AF803B05DF804EB02B0CB
:102830007047000010B5436C044673B3038F2BB987
:10284000184B194AC521194821F0E0FAC38E00EB54
:1028500043035B8C0BB310F0AFFE238F012B03D827
:10286000134B144ACB21EEE7E28E531C9BB2092B8B
:10287000194688BFA3F10A0104EB410140F63F105D
:10288000498C814209D10A2B04EB420228BF002364
:1028900004EB4303508C588451842046BDE810401B
:1028A00010F08DBD325B02083B5B0208E65B02085C
:1028B0002A5C0208385C020810F049BD10B586B0E9
:1028C00002AC84E806001A460AAB05930193099B03
:1028D00000932146089B0DF050FB06B010BD000090
:1028E00038B518BB124B13481C681349B4B12268A1
:1028F00022440260626822440A60A26814440F4BBA
:1029000000221A80FFF760FF0546FFF75BFF0C4BC4
:102910001C600C4B1D600C4B188007E00B4B0360D8
:102920000B4B0B600B4B1C68002CE8D138BD00BF73
:1029300058040020500400204C04002054040020BF
:10294000E82B0120E02B0120DC2B0120B05D0E08DC
:102950006C5D0E08D4650208044B1B6853F8210017
:10296000034B1B6803EB4000704700BF4C04002082
:1029700050040020012380F87C1080F87D307047DF
:102980007047002070470000034B8164003918BF76
:1029900001211970704700BF7E2B01207047002075
:1029A0007047C36B0BB10846184770474FF6FF706E
:1029B0007047406803689B691847704770477047C5
:1029C000704700207047B1F90430838001207047C0
:1029D000704780F82610704790F82600704710B5B1
:1029E0000022B1F90840B1F90A10028042808480C7
:1029F000C18010BD0022028042808280C280704768
:102A00000177704780ED080A704780F824107047FE
:102A100080F82510704701207047983070478C303F
:102A2000704784307047704770470000034B902216
:102A300083F85A2383F85823704700BF00E100E071
:102A4000094A0A49D3680A48C3F30A03013B9BB207
:102A50000B801169C1F30A01013901801364536BC2
:102A600043F0010353637047006801405E04002097
:102A70005C040020014BD3F8AC00704700680140B3
:102A8000024B0122C3F8AC105A6270470068014043
:102A900010B52C21044620F054F8204610BD10B586
:102AA000BC21044620F04DF8204610BD70B5044608
:102AB00007F06DFD23689D6E0DF09EFE01462046D9
:102AC000A8472368054AD3F88C502046AC4600231B
:102AD000BDE87040A2F51631604700BF005802D033
:102AE00007F03CBD07F046BD07F001BD07F06DBE25
:102AF00010B5044608F002FB23682046D3F8BC302A
:102B0000BDE810401847000010B590F87C4090F8E0
:102B100038100C4B8C421A7809D03AB90A4A0B4942
:102B20001488088810800C8001221A7010BD002AB9
:102B3000FCD0054A05491488088810800C800022C2
:102B4000F3E700BF7D2B0120862B0120842B012081
:102B500008B5094B1B888B4203D8084B1B8893424E
:102B600005D9074B074A0848A52121F04FF9074B23
:102B70001980074B1A8008BD862B0120842B012069
:102B80000A5D02086D5D0208B05D0208822B01201B
:102B9000802B01202DE9F0410D460446194635B938
:102BA000154B164A164840F2013121F02FF9C0E9C1
:102BB00010520368134ED3F89030003A18BF012228
:102BC00032709847E569A5B12B681F68337873B1F7
:102BD000236820465B6B9847236C834207D1616C66
:102BE000094B28461A883B46BDE8F0411847216C3E
:102BF000F6E7BDE8F08100BFEF5D0208275E02083E
:102C0000B05D02087F2B0120822B0120034690F843
:102C10007E0018B1586803681B68184770470000A9
:102C2000034B4FF080629A604FF080729A60704759
:102C300000E100E0084B4FF08062C3F88820BFF34A
:102C40004F8FBFF36F8F4FF08072C3F88820BFF3B0
:102C50004F8FBFF36F8F704700E100E070B5002326
:102C6000124E8380124B0360336893F85C20054654
:102C70000AB1186D00B9986803681B6B98473368F0
:102C8000B0FA80F4186D640930B103681B6B984783
:102C9000002808BF44F001042CB9064B064A074837
:102CA0002C2121F0B3F8284670BD00BF882B0120ED
:102CB000E0650208755E0208D35E02080C5F020838
:102CC00070B5264E3568BFF35B8F15F0010542D114
:102CD00030461FF038FF00283DD0214C214B2561A4
:102CE00004F13400C4E90035C4E90255E584A56265
:102CF000A5850FF0CAFA04F158000AF02BF81A4B18
:102D0000A3652046194B40F8843BFFF7A7FF184BFB
:102D1000C4F884302433C4F88C304FF4C803C4E9B9
:102D200028350023C4F8AC30C4F8B030C4F8B4304F
:102D3000C4F8B8300F4A104B1049C4F890502046E0
:102D4000C4F89C50C4F8A850C4F898301FF0F4FEA2
:102D500030461FF004FF024870BD00BF6004002031
:102D6000640400206C6B02080066020878660208A2
:102D7000206B020800000020006B0208292A0008CE
:102D800038B5184C23685BB3174B184A1B6C118875
:102D90008B4216D1164B198803F068FD236893F80F
:102DA0006E200025013283F86E2083F8805000F0F9
:102DB00073FA206808F0A2F92846BDE8384000F010
:102DC00095BC03F053FD2468236820461B6A98478E
:102DD000012384F88030BDE83840002000F0B0BC0A
:102DE00038BD00BF882B0120006801405E04002030
:102DF0005C04002003685B6C18470120704703687F
:102E00009B6A1847FEE740F2EF307047054B0360BE
:102E1000054B4FF08062C3F88820BFF34F8FBFF39C
:102E20006F8F7047C466020800E100E010B50446E9
:102E30004FF45A61FFF7EAFF20461FF082FE20465A
:102E400010BD000082B0002301930E4B1A6B42F4B8
:102E500000021A631A6B02F400020192019A1A69C5
:102E600042F400021A611A6922F400021A61064B48
:102E7000064A5A61064A1A61064B4FF080629A6010
:102E800002B0704700380240E01D0020052E000807
:102E9000ED30000800E100E008B50A2809D8DFE8B5
:102EA00000F006100E08080808101010100002208C
:102EB00008BD054B054A0648902120F0A7FF0020D9
:102EC000F6E70120F4E700BF685F0208835F0208AD
:102ED000CE5F020810B5887F0C46FFF7DDFF174B69
:102EE0005863A18AE28A42EA01425A642269DA639B
:102EF000628BA18A521A1A642268082A16D1A18A02
:102F0000628B521A9A61A18A628B521A1A615862B4
:102F1000217F0B4A42EA0162DA61E2681A622269A1
:102F20005A612269DA60074A1A6010BD0022D8612E
:102F30001A61E2689A63044AF6E700BF00B00240F3
:102F400009000100012302000123030008B50B283A
:102F50000BD8DFE800F00612100A0A0A0A0808086F
:102F60000808022008BD0520FCE7054B054A064875
:102F70006F2120F04BFF0020F4E70120F2E700BFB3
:102F8000685F0208F55F0208CE5F0208F8B50C46DC
:102F9000487FFFF7DBFFA77F05463846FFF7D6FFE0
:102FA00006463846FFF778FFA38A628BD21A474B52
:102FB0001A64A18A628B521A9A61A18A228B521AD0
:102FC0001A615863A18AE28A42EA01425A6422697C
:102FD000DA636268DA60216880292BD0227F11D8F9
:102FE000202969D0402967D004291DD045EA02650F
:102FF000364B45F40035DD61617FA27F914261D09F
:10300000334A46E0B1F5807F04D0B1F5007FEDD1C1
:10301000304900E0304941EA0262DA61E2681A624E
:103020005E6222695A6133E045EA026242F400328C
:10303000DA61F5E7A068021DDA62227F45EA0262E2
:1030400042F40032DA615E6222695A61027842B16A
:10305000012A20D0214B224A22484FF48D7120F0C2
:10306000D5FEDA69418822F47F42013922F010024C
:1030700042EA0122DA610121144BDA6942F02002AE
:10308000DA61DA699206FCD410229A600029B7D07E
:10309000154A1A60F8BDDA694088217F22F47F4220
:1030A000013822F0100242EA0022FF3942F01002F9
:1030B00018BF0121DA61DFE745EA0262034B42F4FF
:1030C0000032B5E742F20132E3E700BF00B0024050
:1030D00001230100090002000A0002003F6002080B
:1030E00059600208CE5F020801230200024B1B68F0
:1030F000586803685B691847882B012070B504463F
:1031000025460A4B0C30002660602672667245F830
:10311000203B6022294608F05BF904F55A63EE6013
:1031200024359D42FBD1204670BD00BFC466020815
:10313000034B1A68D207FCD423229A60704700BF61
:1031400000B002407047000030B50F4C2568ED0715
:10315000FCD423250904A56041F001010225FF2BC1
:1031600065636164E0630AD00849656241EA03630C
:10317000E361074B22626061E060236030BDE5617E
:10318000039BA363034BF8E700B002400900010072
:10319000010002000100030030B50E4C2568ED0768
:1031A000FCD423251204A56042F001020225FF2B66
:1031B00065636264E063E16008D01B0643F00213BC
:1031C000E361054B65626061236030BD034BE361E1
:1031D0000123F9E700B0024001000200020002FFF3
:1031E00030B50B4C2568ED07FCD4232512041B06D3
:1031F000A56043F40033022542F001026563626476
:10320000E063E160E361034B65626061236030BDB0
:1032100000B0024001000200012108B5002208466A
:1032200005F073F90A4B186028B90A4B0A4A28219D
:103230000A4820F0EBFD00220421012005F004FAE9
:10324000074B186018B9074B034A2C21F0E708BD5B
:103250002405002097600208E06002080F61020860
:103260002005002038610208024B4FF0FF3118683A
:1032700005F095B924050020014B186805F0BBB98D
:1032800024050020024B0021186805F088B900BF12
:1032900024050020FFF7F0BF03480449006800231D
:1032A0001A4605F00CBA00BF2005002004000020DB
:1032B00013B5084C00231A4601A9206805F030FA1E
:1032C00020684FF0FF33002201A905F029FA02B06F
:1032D00010BD00BF20050020704770477047704741
:1032E000012070474020704700EB81100830704784
:1032F00000EB811008307047012070474FF4BF6029
:1033000070474FF4BF6303FB0100083070474FF470
:10331000BF6303FB01000830704701207047102095
:10332000704700EB01100830704700EB01100830C7
:1033300070470846FEF7AEBC10B5034B0360044669
:1033400005F0BAFF204610BD7C67020810B50446A0
:10335000FFF7F2FF204648211FF0F3FB204610BD87
:1033600010B5034B0360044605F0A6FF204610BDD0
:103370004867020810B50446FFF7F2FF20464FF4F5
:10338000C0611FF0DEFB204610BD000010B5034BEE
:103390000360044605F090FF204610BD1467020844
:1033A00010B50446FFF7F2FF204618211FF0C9FBB5
:1033B000204610BD10B5084B0360044600F22C6097
:1033C000FFF7BAFF04F12C00FFF7CAFF04F1140065
:1033D000FFF7DCFF204610BDB067020810B50446B9
:1033E000FFF7E8FF204640F2D4711FF0AAFB204609
:1033F00010BD00002DE9F341FFF7DEF90546FFF7A8
:10340000DFF900240146234628462246009410F0A6
:103410003BFB284B284A1A602046FFF761FA274DEC
:10342000274B284A28489A6010F094FA2B68BFF37B
:103430005B8FDB0738D428461FF085FB002833D08C
:10344000224C234B236004F5CF6604F1140004F1F1
:103450002C0804F22C676060C4F80880E7602661DD
:1034600005F02CFF1B4B6361404605F027FF1A4B0C
:10347000E362384605F022FF184BC4F82C3604F2FC
:103480007460FDF795F8224604F274613046FDF74A
:10349000FFF83046FEF7FEFB114A124920461FF0A6
:1034A0004BFB28461FF05BFB0F4802B0BDE8F04124
:1034B00000F0E4B8E42B0120B00500200014002047
:1034C000D0050020B40500200800002004140020CE
:1034D000B067020814670208486702087C670208A0
:1034E00000000020B53300082805002070470000C8
:1034F000014800F0D1B800BF2805002010B5042114
:1035000004461FF01EFB204610BD10B58C2104465A
:103510001FF017FB204610BD10B51C2104461FF0FC
:1035200010FB204610BD10B5882104461FF009FB92
:10353000204610BD2DE9F041374C384D384F394BFE
:1035400039492B60224628461FF0F6FA374EDFF83D
:1035500028813846FFF7D2FD2246354938461FF00C
:10356000EBFA304615F00AFD2246324930461FF08C
:10357000E3FA40460EF0A2FB22462F4940461FF0D8
:10358000DBFA22462D492E481FF0D6FA2D482E4947
:10359000C56000234FF48072C0E913232B4A0363F4
:1035A000C0E91B232A4A8386C0E91F12294AC0F8B2
:1035B0008420294A294980F85C30C0E90176C0E9B5
:1035C0000433C0E90633C0E90833C0E90A33C0E96F
:1035D0000F33C0E91133C0E91533C0E918338366EE
:1035E00080F8743083671060F0220A801C490A80DA
:1035F0001C494FF4A0720A801B490A801B4A1C49CF
:103600001370012380F838301A4B03602246BDE85E
:10361000F0411FF091BA00BF00000020FC13002011
:103620005C060020B0680208D9320008D0050020EE
:103630000D2E0008DB320008DD3200087527000877
:103640000800002028050020000001010100000101
:10365000000450001A001400882B0120862B012042
:10366000822B0120842B0120802B01207D2B012027
:10367000DF320008C4670208B405002010B5044614
:10368000FFF714FA23680349D3F890302046BDE8C9
:103690001040184700B004D008B503680446D3F8BA
:1036A0008430984723682046DB6F9847FFF700FE79
:1036B000236820465B6F9847292000F00FFDFFF735
:1036C000F7FD236820465B6F9847F8E7FFF7D2B90C
:1036D000FFF7D6B9FFF708BAFFF7A8B9FFF7A0BA06
:1036E000FFF7A8BAFFF7ACB906F0FBBE032821D854
:1036F000DFE800F0020B12190F4B1A68B2FA82F2DF
:10370000520904210D4802F0A1BA0B4B5A68B2FAD3
:1037100082F252090821F5E7074B9A68B2FA82F261
:1037200052091021EEE7044BDA68B2FA82F252092C
:103730002021E7E7704700BFD81B0020001002409F
:10374000032821D8DFE800F0020B12190F4B1A688A
:10375000003A18BF012204210D4802F077BA0B4B42
:103760005A68003A18BF01220821F5E7074B9A680A
:10377000003A18BF01221021EEE7044BDA68003A44
:1037800018BF01222021E7E7704700BFD81B0020A7
:103790000010024003280DD8DFE800F00206080AF6
:1037A0000421054802F057BA0821FAE71021F8E78A
:1037B0002021F6E7704700BF0010024008B503283B
:1037C00011D8DFE800F0020A0C0E0421074802F0CD
:1037D00037FA431E5842584108BD0821F6E7102128
:1037E000F4E72021F2E70020F3E700BF00100240D9
:1037F00070B5084D00240126E0B2FFF7DFFF18B1D5
:103800002B68012B18BF2E600134052C05F104052F
:10381000F2D170BDD81B002038B50C4B0C4C188071
:103820000C4B822019806368984740F61103984238
:103830000AD1094D23682C60822098472B6882208A
:10384000DB689847002038BD0120FCE7F21B002010
:1038500024000020F01B0020F41B00204FF4A07176
:10386000F020FFF7D9BF0000F7B5374D2B680446AD
:103870001B6982209847208000284ED02B680DF1CC
:1038800006025B6901A982209847304B1B78002B08
:103890004BD0BDF8063040F6746293423FD9ADF884
:1038A0000620BDF80630D21A92B20A2A42D90B235A
:1038B000B2FBF3F2264B1B889A4201D9013B9AB224
:1038C000BDF8043040F6B8318B4235D8C3F571638A
:1038D0000E339BB20F21B3FBF1F31E4909888B42D3
:1038E00001D901398BB21C4E1C4D30682F688342C0
:1038F00081B28CBF591AC91AB8B2BA428CBF101A19
:10390000801A89B280B201440529C8BF3360336888
:10391000C8BF2A6063802B68A38003B0F0BDB32BBF
:103920009CBFB423ADF80630BBE7BDF80620A2F576
:10393000B472B9E70022C3E7C3F56D6308339BB2E5
:103940000E2BC7D80023CEE7F41B0020481C002014
:10395000F01B0020F21B0020EC1B0020E81B0020C5
:1039600037B568460D461446FFF77EFFBDF80000E8
:1039700030B1BDF802302B60BDF804302360012067
:1039800003B030BD08B50A4A1168034609B90949B0
:1039900011601068694603448B4206D920F08EFC02
:1039A0000C2303604FF0FF3008BD1360FCE700BF3D
:1039B000F81B0020283701200120704708B520F0AF
:1039C0007DFC162303604FF0FF3008BD08B520F0E2
:1039D00075FC16230360FEE770B50D4614460E46CF
:1039E000731B9C4201DC204670BDAFF3008006F8DB
:1039F000010BF5E770B50D4614460E46731B9C424D
:103A000001DC204670BD16F8010BAFF30080F5E72E
:103A10004FF0FF3070474FF400534B600020704769
:103A20000120704700207047054BD3F8882042F4EE
:103A30007002C3F888204FF000629A60704700BFA0
:103A400000ED00E070B588B000230293204B1A6CA3
:103A500042F010021A641B6C03F010030293054637
:103A600001A903A8029B01F0FDF8069B4BBB01F0E6
:103A7000E9F8184E184B336040F2E733F360174B08
:103A8000B0FBF3F3013B7360304600233361B36056
:103A9000B36101F031FA044680B9304601F002F911
:103AA000044658B9362001F031FF0F2D0DD82246BB
:103AB0002946362001F0F8FE094B1D60204608B06B
:103AC00070BD01F0BFF84000D3E70124F6E700BF66
:103AD00000380240FC1B00200010004040420F0054
:103AE0001C000020FEE7000007B5064BADF80600FD
:103AF0001B68054801220DF1060102F0DDF903B053
:103B00005DF804FB100000208C1C002030B595B03F
:103B10003022002108A820F072FB1422002103A803
:103B200020F06DFB00241E4B01941A6C42F0805271
:103B30001A641B6C03F080530193019B194B029490
:103B40001A6842F440421A601B6803F4404302932F
:103B50000122029B4FF48033CDE9082302254FF464
:103B600080030821CDE90E534FF4B473CDE910134F
:103B700008A804231393129500F0E8FD00F056FD09
:103B80000F23CDE903354FF4A0504FF48053CDE916
:103B90000603052103A8059400F0B6FF15B030BD5B
:103BA00000380240007000402DE980489BB002F0D0
:103BB0007DFEFFF7ABFF142200210DA820F01FFBB4
:103BC0000024CA4B00941A6BC948CA4D42F0100237
:103BD0001A631A6B02F010020092009A01941A6B99
:103BE00042F020021A631A6B02F020020192019A3D
:103BF00002941A6B42F080021A631A6B02F0800280
:103C00000292029A03941A6B42F004021A631A6B2E
:103C100002F004020392039A04941A6B42F0010228
:103C20001A631A6B02F001020492049A05941A6B4B
:103C300042F002021A631A6B02F002020592059A20
:103C400006941A6B42F040021A631A6B02F04002AB
:103C50000692069A07941A6B42F008021A631B6BCD
:103C600003F00803224607933C21079B01F0EEFF77
:103C7000A1480122022101F0E9FF22469E480421C9
:103C800001F0E4FF22469D484FF4405101F0DEFF71
:103C900022469B484FF4005101F0D8FF01263C23F7
:103CA000CDE90D3692480F9403230DA902271093F6
:103CB00001F0DCFE90480DA9CDE90D76CDE90F4469
:103CC00001F0D4FE04238C480DA9CDE90D36CDE9D1
:103CD0000F4701F0CBFE8B480F940DA9CDE90D6481
:103CE00001F0C4FE4FF4405384480DA9CDE90D36D0
:103CF000CDE90F4701F0BAFE0DA94FF400538048FB
:103D0000CDE90D36CDE90F4401F0B0FE7E487F4B82
:103D1000036002F03BFFDFF814C27D4B2C62C5E963
:103D200000C328464FF48043C5E90434C5E9024482
:103D3000C5E9064401F00AFB1021284601F05CFDAC
:103D40002146284601F07AFD724DDFF8E4E1AC62CD
:103D50004FF48273C5E900E34FF400781823C5E9F6
:103D6000068328460A23C5E90244C5E90444C5E997
:103D70000844EB6202F041F88F23224639465E4840
:103D80008DF824308DF8344001F060FF32464FF456
:103D90007A7309A9284602F08FF84FF47A733246F5
:103DA0000DA9284602F032FA3246394652485A4D99
:103DB00001F04CFF9DF83430D32B04BF574B1E70DD
:103DC000574B0127C5E900374FF0100A4023002464
:103DD000C5E904A34FF4C073C5E906344FF400638A
:103DE000C5E908344FF4005302264FF00409AB62D2
:103DF0004FF0030B07230DA92846CDE90D63CDE94C
:103E00000F934FF00808C5E90249CDE911B61396A2
:103E100000F046FC4FF6FF7209A92846CDE90A8753
:103E2000089409970C9400F05BFC384602F06AFD98
:103E30004FF6FF7209A92846CDE90968CDE90B7450
:103E400000F04EFC4FF6FF7209A92846CDE909B8EB
:103E5000CDE90B9400F044FC4FF40C730893089BDD
:103E60000C934FF6FF7209A92846CDE909980B97E4
:103E700000F036FC40F26A51284600F04FFC342234
:103E800021460DEB020020F0BAF9264D264B2C619D
:103E9000C5E900340923C5E905371D23C5E9073BFA
:103EA00040F20D1240F24313C5E9092340F2171105
:103EB00040F247132846C5E90B13C5E90244AC8616
:103EC00085F8364002F0E2FBFF21F022CDE9121422
:103ED0004FF4806005214FF4A073CDE91401CDE9C2
:103EE0000E240DA9CDE9164224E000BF003802409F
:103EF000001002408C1D002000080240000C02400F
:103F00000018024000000240201E00200030024045
:103F1000A08601008C1C0020581C0020481C00209A
:103F2000400100A0E41C002000680140005C00404B
:103F30000050014028462246204D1893CDE9103606
:103F40000D94ADF864408DF8664002F060FC1C4BA7
:103F50002B601B6898472B681A4DDB6898471A4BF3
:103F60002846C5E90034C5E90264C5E90A46C5E941
:103F70000C4402F0F0F93946284602F0ABFA02F0A0
:103F800016FE02F013FE04F04DFA104A3146504678
:103F900004F05AFB0E4B0F4A186021460E4804F0FD
:103FA0006DFA0E4B0E4A186021460E4804F066FA70
:103FB0000D4B186004F048FAFEE700BF441C0020D7
:103FC0004C000020E01D002000B00240D86802082C
:103FD0004C1C002014690208E53A0008541C00201B
:103FE000F0680208BD6B0008501C00207047704745
:103FF0007FB5094B8DF817201B6802930DF117024E
:104000000123009201930A460146044801F04CFA4C
:1040100007B05DF804FB00BF140000208C1D0020D9
:104020007FB500238DF81730084B1B6802930A46B2
:1040300001230DF11701009101930146044801F09D
:10404000C7FA9DF8170007B05DF804FB14000020C4
:104050008C1D00201FB5084C24680092CDE9013466
:104060000A4601230146054801F0B2FA003818BF9C
:10407000012004B010BD00BF140000208C1D0020E2
:1040800002F040BC10B5064C00222046042101F08D
:10409000DDFD20460122BDE81040042101F0D6BD1F
:1040A0000008024038B50B4D044601220A484FF47F
:1040B000005101F0CBFD00220421284601F0C6FD8D
:1040C0002046FFF711FD28460122BDE838400421B3
:1040D00001F0BCBD00080240000C024038B50B4D99
:1040E000044600220A484FF4005101F0AFFD0022BF
:1040F0000421284601F0AAFD2046FFF7F5FC2846DA
:104100000122BDE83840042101F0A0BD00080240B2
:10411000000C0240F7B5144E144F05460C463046CD
:104120000022042101F092FD00224FF40051384694
:1041300001F08CFD2846FFF7D7FC0D4B0D481B689E
:10414000224601A902F062F8384601224FF40051DC
:10415000019C01F07BFD30460122042101F076FD37
:10416000204603B0F0BD00BF00080240000C024032
:10417000100000208C1C002002F0C4BB0268034B1E
:104180009A4201D102F0ACBB704700BF0010004062
:1041900070477047FEE7FEE7FEE7FEE77047000066
:1041A000014800F0BDBD00BFFC1B0020014802F02B
:1041B000CDBA00BFE41C0020014802F0FAB800BFED
:1041C000E01D002082B00E4B00220092596C41F499
:1041D00080415964596C01F4804100910099019229
:1041E000196C41F0805119641B6C03F080530193EA
:1041F000019B0F216FF0010002B001F055BB00BF21
:10420000003802400268094B9A4282B00BD1002369
:104210000193074B1A6B42F480521A631B6B03F431
:1042200080530193019B02B0704700BF00300240F1
:104230000038024007B50F4B02689A4216D100229F
:10424000A3F5F0430192196B41F4000119631B6B54
:1042500003F40003019305215A20019B01F024FB84
:104260005A2003B05DF804EB01F050BB03B05DF8D9
:1042700004FB00BF00B002402DE9F043044689B0C2
:104280001422002103A81FF0BAFF2268244B9A428F
:1042900043D1244C244800250095236B43F00403AC
:1042A0002363236B03F004030093009B0195236BAE
:1042B00043F001032363236B03F001030193019B8C
:1042C0004FF012094FF400734FF001080327042642
:1042D00003A9CDE90339CDE90587079601F0C6FBAF
:1042E0004FF480731148079603A9CDE90339CDE94E
:1042F000058701F0BBFB0295236C43F400032364A4
:10430000236C03F400030293029B236A43F400032B
:104310002362236A23F40003236209B0BDE8F0831B
:10432000005C0040003802400008024000000240EB
:10433000F0B599B004461422002107A81FF05FFFD2
:1043400030220DEB020000211FF059FF22685E4B66
:104350009A4240F0B78008230C93C02310930423A3
:1043600012930CA84FF40033159302F0DFFA08B152
:10437000FFF70EFF554B5648002400945A6C42F04C
:1043800080625A645A6C02F080620092009A019432
:104390001A6B42F020021A631A6B02F0200201929B
:1043A000019A02941A6B42F001021A631A6B02F02E
:1043B00001020292029A03941A6B42F002021A63FB
:1043C0001A6B02F002020392039A04941A6B42F0F1
:1043D00040021A631A6B02F040020492049A059498
:1043E0001A6B42F004021A631A6B02F0040205927F
:1043F000059A06941A6B42F008021A631B6B03F0CD
:104400000803069302250E26069B0B964FF4806345
:1044100007A9CDE90735CDE9094501F027FB41F6AC
:1044200058032C480B9607A9CDE907350927CDE994
:10443000094501F01BFB032327480B9707A9CDE98A
:104440000735CDE9094501F011FB4FF470632248AF
:104450000B9607A9CDE90735CDE9094501F006FB23
:104460004FF40C631D480B9607A9CDE90735CDE93C
:10447000094501F0FBFAC02319480B9607A9CDE9BD
:104480000735CDE9094501F0F1FA082315480B96E7
:1044900007A9CDE90735CDE9094501F0E7FA4FF461
:1044A000A0530E480B9707A9CDE90735CDE909457B
:1044B00001F0DCFA58202246052101F0F5F95820D8
:1044C00001F024FA19B0F0BD006801400038024044
:1044D00000140240000002400004024000180240A4
:1044E00000080240000C024010B5044688B01422B7
:1044F000002103A81FF083FE2268144B9A4223D1A7
:1045000003F56843002101915A6C114842F480126E
:104510005A645A6C02F480120192019A02911A6B49
:1045200042F020021A631B6B03F020030293029BEC
:104530004FF4607202230321CDE903230523CDE963
:10454000061303A901F092FA08B010BD0050014013
:10455000001402402DE9F04186B0002303932B4B59
:104560001C68002C4FD14FF00108C3F80080284B85
:1045700000949A6B274842EA08029A639B6B03EA0D
:1045800008030093022703260C25009B01A94FF680
:104590003F03CDE90137CDE9046501F067FA1E4814
:1045A000059501A9CDE90187CDE9034601F05EFA41
:1045B00048F233131948059501A9CDE90137CDE932
:1045C000034601F053FA4FF683731548059501A988
:1045D000CDE90137CDE9034601F048FA4CF2037307
:1045E0001048059501A9CDE90137CDE9034601F051
:1045F0003DFA60230C48059501A9CDE90137CDE9C5
:10460000034601F033FA06B0BDE8F081281E002011
:104610000038024000140240000802400018024026
:1046200000100240000C02400004024037B5002395
:104630000193184B184D1A6C42F080521A641B6C8F
:1046400003F080530193019B144B01221A6402F082
:1046500053F904466B68DA030BD5104B0E4D01225B
:104660005A6402F049F904466B689B030AD500209E
:1046700006E002F041F9001BB0F57A7FEAD9032089
:1046800003B030BD02F038F9001BB0F57A7FEBD9EA
:10469000F5E700BF003802400070004000000E4205
:1046A00038B50D460446C8B190F82C3003F0FF022F
:1046B0001BB980F82D20FFF74DFF022384F82C3022
:1046C000211D206801F030F962682068294601F058
:1046D0005FF9012384F82C30002038BD0120FCE76D
:1046E00070B590F82C30022B05460E46D8B212D089
:1046F00000F0FB04012C0FD1022385F82C30286830
:1047000001F088F93368022B06BF052385F82C30A9
:1047100085F82C40002070BD0120FCE738B590F8EA
:104720002C30022B0446D8B20DD094F82C30012B3B
:10473000DDB209D10223206884F82C3001F08EF913
:1047400084F82C50002038BD0120FCE72DE9F3410E
:10475000044640B30368DE0710D423689D075BD48A
:104760002368190700F19D8023685A0700F1BD8076
:10477000A369002B40F0268100202EE08E4B9A6822
:1047800002F00C02042A07D09A6802F00C02082AF0
:104790000BD15B68590208D5874B1B689A03DCD59F
:1047A0006368002BD9D1012017E06268824BB2F513
:1047B000803F15D11A6842F480321A606368F3B101
:1047C00002F09AF87C4E054633689B03C5D402F08C
:1047D00093F8401B6428F7D9032002B0BDE8F081AC
:1047E000B2F5A02F1A6803D142F480221A60E1E7E3
:1047F00022F480321A601A6822F48022DDE702F087
:104800007BF86D4E054633689F03A6D502F074F819
:10481000401B6428F7D9DFE7674B9A6812F00C0F4A
:1048200007D09A6802F00C02082A11D15B685D0279
:104830000ED4614A1368990702D5E368012BB2D1FF
:104840001368216923F0F80343EAC103136087E783
:10485000E2685A4BB2B101221A6002F04DF8564D8F
:1048600006462B689B0707D52B68226923F0F803BF
:1048700043EAC2032B6073E702F03EF8801B022874
:10488000EFD9A9E71A6002F037F84B4E05463368B6
:104890009F077FF565AF02F02FF8401B0228F6D97D
:1048A0009AE76269454B82B10122C3F8802E02F07B
:1048B00023F8414E0546736F9B073FF555AF02F055
:1048C0001BF8401B0228F6D986E7C3F8802E02F0B9
:1048D00013F8394E0546736F9F077FF545AF02F019
:1048E0000BF8401B0228F6D976E7334B1A6C12F00E
:1048F00080522BD101921A6C42F080521A641B6CC8
:1049000003F080530193019B01262D4D2B68D805A0
:104910001ED5A268284B012A2AD11A6F42F0010243
:104920001A67A368002B37D001F0E6FF224F054637
:1049300041F288383B6F9A0728D5002E3FF418AF14
:104940001D4A136C23F08053136411E70026DCE743
:104950002B6843F480732B6001F0CEFF07462B6871
:10496000D905D6D401F0C8FFC01B0228F7D933E718
:10497000052A1A6F03D142F004021A67CDE722F02C
:1049800001021A671A6F22F00402C9E701F0B4FFAE
:10499000401B4045CED91FE701F0AEFF064F05464C
:1049A00041F288383B6F9B07C7D501F0A5FF401B3C
:1049B0004045F7D910E700BF0038024000004742E9
:1049C00000700040374DAA6802F00C02082A3ED061
:1049D000022B354B4FF000021A662BD101F08CFFF1
:1049E00006462B6899011FD4D4E907321343626A43
:1049F00043EA8213E26A43EA0263A26A5208013A76
:104A000043EA02436B60284B264D01221A6601F0EF
:104A100073FF04462B689A013FF5AEAE01F06CFFC0
:104A2000001B0228F6D9D7E601F066FF801B02289A
:104A3000D7D9D1E601F060FF04462B689B017FF5D2
:104A40009BAE01F059FF001B0228F6D9C4E6012BEA
:104A50003FF4A9AE6B68E26903F4800191427FF4F0
:104A6000A2AE216A03F03F028A427FF49CAE616AE3
:104A700047F6C0721A40B2EB811F7FF494AEA26A6F
:104A8000520803F44031013AB1EB024F7FF48BAE90
:104A9000E26A03F07063B3EB026F14BF01200020E1
:104AA0009BE600BF003802400000474208B51349AA
:104AB0008B6803F00C03042B1CD0082B1CD14A6814
:104AC0004B68496813F4800314BF0D480D48C1F3C7
:104AD000881118BF002302F03F02A1FB0001FBF781
:104AE000B7FB064B5B68C3F3014301335B00B0FBCC
:104AF000F3F008BD0248FCE70248FAE7003802403C
:104B000000127A000024F4002DE9F0410D4604461D
:104B100010B90120BDE8F081454B1A6802F00F0280
:104B20008A422AD323689E072FD42368D90743D407
:104B30003F4B1A6802F00F02AA4268D823685A074E
:104B40006ED423681B0707D53A4A2169936823F47A
:104B5000604343EAC1039360FFF7A8FF354B364A31
:104B60009B68C3F30313D35CD840344B1860344BB9
:104B70001868FEF767FF0020CCE7CAB21A701B68FE
:104B800003F00F038B42C4D1CCE7580741BF294A39
:104B9000936843F4E05393602368264A13F0080FA8
:104BA0001EBF936843F4604393609368A16823F049
:104BB000F0030B439360B8E762681E4B012A1CD1D7
:104BC0001B6813F4003FA4D01A4EB36823F003030C
:104BD0001343B36001F090FE41F288380746B36892
:104BE000626803F00C03B3EB820FA1D001F084FEE6
:104BF000C01B4045F3D903208CE7911E01291B6897
:104C000002D813F0007FDEE713F0020FDBE7EAB211
:104C10001A701B6803F00F03AB427FF47AAF8DE785
:104C2000044AE168936823F4E0530B43936088E7F8
:104C3000003C024000380240C86802080C00002016
:104C40001C000020044B054A9B68C3F38223D35CFD
:104C5000034A1068D840704700380240C068020814
:104C60000C0000200F2303600B4B9A6802F0030234
:104C700042609A6802F0F00282609A6802F4E052A0
:104C8000C2609B68DB0803F4E0530361034B1B68BD
:104C900003F00F030B60704700380240003C0240F5
:104CA0007047000090F83D30012B31D1026802239B
:104CB00080F83D30D36843F00103D3600368154AA0
:104CC00093421AD0B3F1804F17D0A2F57C429342A1
:104CD00013D002F5806293420FD002F580629342B6
:104CE0000BD002F57842934207D002F570529342FE
:104CF00003D0A2F59432934204D19A6802F00702DD
:104D0000062A03D01A6842F001021A600020704798
:104D1000012070470000014070477047704770479E
:104D200070B50368DD681E69B10704460ED5AA0791
:104D30000CD56FF002021A610123037703689B69A7
:104D40009B076CD0FFF7E9FF00232377710711D58C
:104D50006A070FD523686FF004021A6102232377D4
:104D600023689B6913F4407F20465ED0FFF7D5FF90
:104D700000232377330710D528070ED523686FF05B
:104D800008021A61042323772368DB699907204608
:104D900051D0FFF7C2FF00232377F20611D5EB06AF
:104DA0000FD523686FF010021A6108232377236858
:104DB000DB6913F4407F204643D0FFF7AEFF0023AA
:104DC0002377F00708D5E90706D523686FF00102BD
:104DD0001A612046FFF7D2F9320608D52B0606D510
:104DE00023686FF080021A61204600F049FD7006CA
:104DF00008D5690606D523686FF040021A6120467F
:104E0000FFF78DFFB20622D5AB0620D523686FF0E1
:104E100020021A612046BDE8704000F030BDFFF767
:104E20007BFF2046FFF77AFF8EE7FFF775FF2046EE
:104E3000FFF774FF9CE7FFF76FFF2046FFF76EFF59
:104E4000A9E7FFF769FF2046FFF768FFB7E770BDE6
:104E5000274A0368904212D0B0F1804F0FD0A2F5DC
:104E60007C4290420BD002F58062904207D002F55E
:104E70008062904203D002F57842904208D14A689D
:104E800023F070031343CA6823F44073134316E0FE
:104E9000184A9042F7D002F580629042F3D002F5B2
:104EA00080629042EFD0A2F598329042EBD002F5AA
:104EB00080629042E7D002F580629042E3D04A6976
:104EC00023F0800313438A68C2620A688262084A38
:104ED000904203D002F58062904201D10A690263D8
:104EE000026842F0040202600122426103607047DE
:104EF000000001400040014010B5044630B390F876
:104F00003D3003F0FF021BB980F83C20FFF7C8FEDC
:104F10000223206884F83D30211DFFF799FF01230B
:104F200084F84630002084F83E3084F83F3084F81E
:104F3000403084F8413084F8423084F8433084F8BB
:104F4000443084F8453084F83D3010BD0120FCE742
:104F500001684B6913F480634FF0000210D06FF4C6
:104F600080634B612023026380F83D3080F83E204F
:104F7000036C80F83C2043F0040303640120704775
:104F8000184670472DE9F84606460F4691461D46DD
:104F90004FEA114A3368BAF1010F0CBF5C699C6992
:104FA00027EA0404A4B2B4FA84F46409A14501D048
:104FB000002025E06A1CEED001F09EFC089BC01A80
:104FC000A84201D8002DE5D13368BAF1010F0CBF1A
:104FD0005B699B6927EA03039BB2B3FA83F35B091E
:104FE0009945D7D100232022336386F83D2086F8E7
:104FF0003E30326C86F83C3042F0200232640120B0
:10500000BDE8F886F8B504460E4615461F462268E8
:10501000506926EA000080B2C8B15369590517D516
:10502000136843F40073136023686FF480625A615D
:1050300000232022236384F83D2084F83E30236C33
:1050400043F004032364002384F83C300120F8BDBE
:105050006B1CDDD001F050FCC01BA84201D8002D14
:10506000D5D123685A6926EA020292B2002ACED02C
:1050700000232022236384F83D2084F83E30236CF3
:105080001343DFE770B504460D46164623685B6997
:105090001B0601D500201EE02046FFF759FFC8B9C6
:1050A0006A1CF3D001F028FC801BA84201D8002D17
:1050B000ECD123685B6913F08003E7D120222363DE
:1050C00084F83D2084F83E30226C84F83C3042F075
:1050D00020022264012070BD2DE9F04315460268CC
:1050E00085B0DDE90C789946136843F4807313604A
:1050F0000E463B46CDF8008000224FF001110446D9
:10510000FFF740FF236838B11B68DB0502D54FF479
:1051100000732364032620E006F0FE061E611A4990
:1051200043463A462046FFF76DFFA8B9236803902F
:105130005A6903929B690393424639462046039B72
:10514000FFF7A0FF064660B1236C042B01BF226865
:10515000136843F4007313600126304605B0BDE8C0
:10516000F083B9F1010F236802D1EDB21D61F4E7BC
:105170002A0A1A61394642462046FFF783FF002873
:10518000E2D12368F1E700BF020001002DE9FF47EB
:10519000154602689A46136843F4806313600268F8
:1051A000DDE90C78136843F4807313600E463B46C8
:1051B000CDF8008000224FF001110446FFF7E2FE17
:1051C000236838B11B68DB0544BF4FF400732364C8
:1051D000032021E05FFA86F906F0FE061E612B49E6
:1051E00043463A462046FFF70DFFA0B923680390D7
:1051F0005A6903929B690393424639462046039BB2
:10520000FFF740FF58B1236C042B01BF22681368DD
:1052100043F400731360012004B0BDE8F087BAF1D5
:10522000010F23681AD1EDB242461D61394620466E
:10523000FFF728FF02460028E5D121680B6843F4F8
:1052400080730B602046CDF800803B464FF0011183
:10525000FFF798FE226860B11368B4E72A0A1A6162
:10526000394642462046FFF70DFF0028CBD1236880
:10527000D9E749F001031361044943463A46204601
:10528000FFF7C0FE003818BF0120C5E7020001008B
:1052900070B504460D46164623685B695B0701D569
:1052A00000201EE02046FFF753FEC8B96A1CF3D069
:1052B00001F022FB801BA84201D8002DECD123680D
:1052C0005B6913F00403E7D12022236384F83D20B7
:1052D00084F83E30226C84F83C3042F02002226494
:1052E000012070BD70B504460D46164621684B6915
:1052F00013F0400301D0002011E04A69D2060FD517
:105300006FF010024A612022236384F83D2084F864
:105310003E30236C2364002384F83C30012070BDB0
:1053200001F0EAFA801BA84201D8002DDED12368E3
:105330005B6913F04003D9D12022236384F83D2018
:1053400084F83E30236C1343E4E7000070B5044654
:1053500008B9012070BD90F83D3003F0FF021BB981
:1053600080F83C20FEF788FF2268242384F83D3033
:10537000136823F0010313602268136843F40043A9
:1053800013602268136823F400431360FFF75AFC8C
:10539000414B62689A4294BF404B414B9842D8D9E6
:1053A0002168404B4A68B0FBF3F322F03F021A43F6
:1053B0004A60394D66682168AE4288BF4FF49675E1
:1053C0000A6A88BF6B4322F03F0284BF4FF47A75AC
:1053D000B3FBF5F3013313430B6221686568CA69B7
:1053E000431E2D4822F44F42854222F0FF0236D858
:1053F0006D0040F6FC70B3FBF5F30133034246D079
:10540000C3F30B031A43CA612168D4E907300A6861
:10541000034322F0C00213430B602168D4E9030365
:105420008A6822F40342034322F0FF0213438B6095
:105430002168D4E90530CA68034322F0FF02134310
:10544000CB602268136843F001031360002020231F
:10545000206484F83D30206384F83E007AE7A06839
:1054600050B905EB4505B3FBF5F30133C3F30B036B
:105470007BB143F40043C5E719204543B3FBF5F383
:105480000133C3F30B0323B143F44043BAE70423CE
:10549000B8E70123B6E700BFA08601007F841E00A5
:1054A000FF083D0040420F002DE9F74304469946AE
:1054B0000C9E0F46904601F01FFA94F83D30202BC9
:1054C000054603D0022003B0BDE8F08300903E49BA
:1054D000192301222046FFF755FD0028F2D194F848
:1054E0003C30012BEED0012384F83C3023681A684D
:1054F000D2075EBF1A6842F001021A602268136880
:1055000023F400631360212384F83D30402384F8A2
:105510003E30002323640A9B6362BDF82C30638510
:10552000638D2385294BE3624246CDE900654B46F6
:1055300039462046FFF7D0FD00282DD00120C2E7D4
:10554000FFF7A0FD40B1236C042B01BF2268136854
:1055500043F400731360F1E7626A236812781A61FA
:10556000616A628D4B1C6362238D013A92B2013BEA
:1055700062859BB222682385506940070CD55BB1D8
:105580004B781361636A01336362238D013B23858A
:10559000638D013B9BB26385238D2A4631462046AD
:1055A000002BCDD1FFF774FE0028CCD12268136800
:1055B00043F400731360202384F83D3084F83C00EA
:1055C00084F83E007FE700BF020010000000FFFFEC
:1055D0002DE9F043044687B09946109F0D4690464A
:1055E00001F08AF994F83D30202B064604D00225BC
:1055F000284607B0BDE8F08300907C4919230122BA
:105600002046FFF7BFFC0028F1D194F83C30012B75
:10561000EDD0012384F83C3023681A68D0075EBFC0
:105620001A6842F001021A602268136823F40063CA
:105630001360222384F83D30402384F83E30002359
:1056400023640E9B6362BDF83C306385638D2385C4
:10565000674BE3622946CDE900764B464246204639
:10566000FFF794FD054608B10125C1E7228D2368A7
:10567000B2B902905A6902929A690292029A1A6821
:1056800042F400721A60DFF86C81238D002B2FD159
:10569000202284F83D2084F83C3084F83E30A7E78F
:1056A000012A0BD11A6822F480621A6023680390E1
:1056B0005A6903929A690392039AE0E7022A10D189
:1056C0001A6822F480621A602268136843F4006347
:1056D0001360236804905A6904929B690493049BA5
:1056E000D1E705905A6905929B690593059BCAE726
:1056F000032B58D8012B0BD1324639462046FFF7F1
:10570000F1FD0028B0D123681A69636A1A7021E09C
:10571000022B00963B464FF000024146204624D122
:10572000FFF730FC00289FD12268136843F4007310
:10573000136023681A69636A1A70626A531C636291
:10574000238D013B2385638D013B9BB263852368D9
:105750001B695370636A01336362238D013B2385A8
:10576000638D013B9BB263858FE7FFF70BFC02461D
:1057700000287FF479AF21680B6823F480630B6005
:1057800023681969636A1970636A01336362238D40
:10579000013B2385638D013B9BB2638541460096A7
:1057A0003B462046BCE7324639462046FFF79AFD85
:1057B00000287FF459AF23681A69636A1A70636A14
:1057C000628D01336362238D013A92B2013B62859F
:1057D0009BB222682385516949077FF556AF032B99
:1057E00002BF136823F4806313608CE7020010008B
:1057F0000000FFFF0400010010B590F83D30202BA1
:10580000DCB219D10268242380F83D30136823F0FC
:10581000010313600268536A23F0100353620268A5
:10582000536A194351620268136843F0010313601D
:1058300080F83D40002010BD0220FCE730B590F814
:105840003D30202BDCB218D10268242380F83D3093
:10585000136823F0010313600268556A4FF6F07372
:105860002B400B439BB253620268136843F0010361
:10587000136080F83D40002030BD0220FCE77047F7
:10588000704700000749CA6822F4E062030212046C
:1058900003F4E063120C134343F0BF6343F400339B
:1058A000CB60704700ED00E030B5164BDC68C4F308
:1058B0000224C4F10703251D042B28BF0423062D51
:1058C0004FF0FF358CBF033C002405FA03F321EAB7
:1058D0000303A54022EA0502A340002843EA02038D
:1058E000ACBF00F16040084A4FEA0313B8BF00F0B4
:1058F0000F00DBB2AABF00F56140135480F80033FB
:1059000030BD00BF00ED00E014ED00E0002807DB33
:10591000044A4109012300F01F00834042F821306E
:10592000704700BF00E100E030B5D1E907340A68F4
:105930004D6A2343154C92B902682B43224013430E
:105940004A6813438A681343CA6813430A691343B6
:105950004A6913438A6913430360002030BD02681B
:105960002B4322F4F8421343036043684A68234000
:1059700013438A681343CA6813430A6913434A6985
:1059800013438A6913434360E7E700BF0080FFFFCA
:1059900010B54C69CB68013C013B240544EA033453
:1059A000CAB90B688268013B02F07042234313437B
:1059B0004A68013A43EA02138A68013A43EA022339
:1059C0000A69013A43EA02438A69013A43EA0263F7
:1059D0008360002010BD836823F4700323F47043B8
:1059E00023438360C3684A6803F07043013A43EA83
:1059F00002130A68013A13438A68013A43EA022310
:105A00000A69013A43EA02438A69013A43EA0263B6
:105A1000C360DEE770B5044615460269D1E900307F
:105A20000343C8686FF3150243EA402313438A68AF
:105A3000013A43EA4213236100F05EFF0646A06983
:105A400010F0200003D06B1CF9D00DB9032070BDFD
:105A500000F052FF801BA842F1D9F7E743696FF3CA
:105A60004D0343EA41034361002070472DE9F74F9E
:105A7000DFF8C8C16F4A00234FF0010E4FF0030852
:105A80000E680EFA03F404EA0605B44340F0B98048
:105A90004C6804F003045F00013C08FA07F6012C8F
:105AA0006FEA060611D8846804EA0609CC68BC408F
:105AB00044EA09048460446824EA05094C68C4F394
:105AC00000149C4044EA090444604C6804F0030458
:105AD000032C23D0C46804EA06098C68BC4044EA5D
